:100000000C9434000C9451000C9451000C94510049
:100010000C9451000C9451000C9451000C9451001C
:100020000C9451000C9451000C9451000C9451000C
:100030000C9451000C9451000C9451000C945100FC
:100040000C9451000C9451000C9454020C945100E7
:100050000C9451000C9451000C9451000C945100DC
:100060000C9451000C94510011241FBECFEFD8E026
:10007000DEBFCDBF11E0A0E0B1E0E8E2F5E002C0F4
:1000800005900D92A431B107D9F711E0A4E1B1E0D8
:1000900001C01D92AB34B107E1F70E94FB010C9443
:1000A00092020C94000087E690E09093C500809344
:1000B000C400E1ECF0E08081806880838081886109
:1000C000808386E08093C2000895982F8091C000BD
:1000D00085FFFCCF9093C60008958091C00087FFF4
:1000E000FCCF8091C6000895FC0107C08091C0003C
:1000F00085FFFCCF9093C600319690819923B1F78C
:100100000895E9E2F1E08091C00087FFFCCF809183
:10011000C600819381E0E933F807A9F70895E9E380
:10012000F1E0119281E0E934F807D9F7089588B930
:100130005B985B9A5B9808951F93182F5A9A829543
:100140008F700E949700812F8F700E94970080EE21
:100150009EE20197F1F71F910895CF93DF93EC0191
:1001600089910E949C0088818823D1F7DF91CF91EB
:1001700008951F93182F5A9882958F700E949700A8
:10018000812F8F700E94970080EE9EE20197F1F719
:100190001F910895882329F4862F80580E94B90062
:1001A0000895813021F4862F80540E94B90008956B
:1001B0000F931F9387B18F6087B98AB18C608AB91A
:1001C00080E69AEE0197F1F783E00E94B90080E2A1
:1001D0009EE40197F1F783E00E94B90084EA91E080
:1001E0000197F1F783E00E94B90082E00E94B90014
:1001F00000E41FE1C8010197F1F788E20E94B9000D
:10020000C8010197F1F78FE00E94B9008AEF90E0F2
:1002100020E931E0F9013197F1F70197D9F781E051
:100220000E94B9001F910F9108958AB1806E8AB91A
:1002300084B1807E84B985B18F6185B95E9A089555
:10024000CF93DF9383B18F718F3109F491C0C0E2F6
:10025000DEE4CE010197F1F781E060E00E94CA0080
:1002600019990DC0CE010197F1F7199BFECFE091CE
:100270001601F0911701E65EFE4F81E60EC01A9955
:100280000EC0CE010197F1F71A9BFECFE091160147
:10029000F0911701E65EFE4F82E680835CC01B99F9
:1002A0000DC0CE010197F1F71B9BFECFE091160127
:1002B000F0911701E65EFE4F83E6EFCF189925C057
:1002C000CE010197F1F7189BFECFE0911601F09156
:1002D00017013197F0931701E0931601E65EFE4F88
:1002E000108280E091E00E94AD0081E060E00E9419
:1002F000CA00809116019091170197FD2CC00197BB
:10030000909317018093160126C01C9924C0CE013A
:100310000197F1F71C9BFECFE0911601F0911701B8
:10032000E65EFE4F8EE280838AE191E00E947400D7
:10033000E9E3F1E0119281E0E934F807D9F780E0D0
:1003400091E00E94AD0081E060E00E94CA0080E47C
:100350009CE90197F1F780911601909117010196A0
:1003600090931701809316018AE191E00E94AD00FD
:10037000DF91CF9108955D9A8CEB92E020E931E016
:10038000F9013197F1F70197D9F75D988CEB92E07D
:1003900020E931E0F9013197F1F70197D9F75D9A3A
:1003A0008CEB92E020E931E0F9013197F1F7019708
:1003B000D9F75D9808955F9A8CEB92E020E931E0DF
:1003C000F9013197F1F70197D9F75F988CEB92E03B
:1003D00020E931E0F9013197F1F70197D9F75F9AF8
:1003E0008CEB92E020E931E0F9013197F1F70197C8
:1003F000D9F75F98089587E690E09093C5008093C1
:10040000C4008091C10080688093C1008091C100C8
:1004100088618093C10086E08093C2000E94D8006A
:1004200080E69AEE0197F1F781E00E94B9000E9400
:10043000150178940E942001809118019091190172
:100440008130910521F50E94BB01E0911401F091EA
:100450001501E85CFE4F10821092190110921801EC
:10046000109215011092140181E00E94B90089E3F5
:1004700091E00E94AD00E9E3F1E0119281E0E934FE
:10048000F807D9F781E191E00E947400D3CF029779
:1004900089F610921901109218011092150110920C
:1004A00014010E94DB01C6CF1F920F920FB60F926C
:1004B00011242F933F938F939F93EF93FF9320915A
:1004C0001401309115018091C00087FFFCCF80910D
:1004D000C600F901E75CFE4F8083F9013196F09385
:1004E0001501E09314018F3319F482E090E006C007
:1004F0008E3211F03F9739F481E090E0909319012A
:100500008093180104C01092190110921801FF91F4
:10051000EF919F918F913F912F910F900FBE0F9070
:080520001F901895F894FFCF1D
:1005280020202020202020202020202020202020C3
:04053800003F000080
:00000001FF
